{
    "_format": "hh-sol-artifact-1",
    "contractName": "MintNft",
    "sourceName": "contracts/MintNft.sol",
    "abi": [
        {
            "inputs": [
                {
                    "internalType": "string",
                    "name": "_name",
                    "type": "string"
                },
                {
                    "internalType": "string",
                    "name": "_symbol",
                    "type": "string"
                }
            ],
            "stateMutability": "nonpayable",
            "type": "constructor"
        },
        {
            "inputs": [
                {
                    "internalType": "address",
                    "name": "sender",
                    "type": "address"
                },
                {
                    "internalType": "uint256",
                    "name": "tokenId",
                    "type": "uint256"
                },
                {
                    "internalType": "address",
                    "name": "owner",
                    "type": "address"
                }
            ],
            "name": "ERC721IncorrectOwner",
            "type": "error"
        },
        {
            "inputs": [
                {
                    "internalType": "address",
                    "name": "operator",
                    "type": "address"
                },
                {
                    "internalType": "uint256",
                    "name": "tokenId",
                    "type": "uint256"
                }
            ],
            "name": "ERC721InsufficientApproval",
            "type": "error"
        },
        {
            "inputs": [
                {
                    "internalType": "address",
                    "name": "approver",
                    "type": "address"
                }
            ],
            "name": "ERC721InvalidApprover",
            "type": "error"
        },
        {
            "inputs": [
                {
                    "internalType": "address",
                    "name": "operator",
                    "type": "address"
                }
            ],
            "name": "ERC721InvalidOperator",
            "type": "error"
        },
        {
            "inputs": [
                {
                    "internalType": "address",
                    "name": "owner",
                    "type": "address"
                }
            ],
            "name": "ERC721InvalidOwner",
            "type": "error"
        },
        {
            "inputs": [
                {
                    "internalType": "address",
                    "name": "receiver",
                    "type": "address"
                }
            ],
            "name": "ERC721InvalidReceiver",
            "type": "error"
        },
        {
            "inputs": [
                {
                    "internalType": "address",
                    "name": "sender",
                    "type": "address"
                }
            ],
            "name": "ERC721InvalidSender",
            "type": "error"
        },
        {
            "inputs": [
                {
                    "internalType": "uint256",
                    "name": "tokenId",
                    "type": "uint256"
                }
            ],
            "name": "ERC721NonexistentToken",
            "type": "error"
        },
        {
            "anonymous": false,
            "inputs": [
                {
                    "indexed": true,
                    "internalType": "address",
                    "name": "owner",
                    "type": "address"
                },
                {
                    "indexed": true,
                    "internalType": "address",
                    "name": "approved",
                    "type": "address"
                },
                {
                    "indexed": true,
                    "internalType": "uint256",
                    "name": "tokenId",
                    "type": "uint256"
                }
            ],
            "name": "Approval",
            "type": "event"
        },
        {
            "anonymous": false,
            "inputs": [
                {
                    "indexed": true,
                    "internalType": "address",
                    "name": "owner",
                    "type": "address"
                },
                {
                    "indexed": true,
                    "internalType": "address",
                    "name": "operator",
                    "type": "address"
                },
                {
                    "indexed": false,
                    "internalType": "bool",
                    "name": "approved",
                    "type": "bool"
                }
            ],
            "name": "ApprovalForAll",
            "type": "event"
        },
        {
            "anonymous": false,
            "inputs": [
                {
                    "indexed": false,
                    "internalType": "uint256",
                    "name": "_fromTokenId",
                    "type": "uint256"
                },
                {
                    "indexed": false,
                    "internalType": "uint256",
                    "name": "_toTokenId",
                    "type": "uint256"
                }
            ],
            "name": "BatchMetadataUpdate",
            "type": "event"
        },
        {
            "anonymous": false,
            "inputs": [
                {
                    "indexed": false,
                    "internalType": "uint256",
                    "name": "_tokenId",
                    "type": "uint256"
                }
            ],
            "name": "MetadataUpdate",
            "type": "event"
        },
        {
            "anonymous": false,
            "inputs": [
                {
                    "indexed": true,
                    "internalType": "address",
                    "name": "from",
                    "type": "address"
                },
                {
                    "indexed": true,
                    "internalType": "address",
                    "name": "to",
                    "type": "address"
                },
                {
                    "indexed": true,
                    "internalType": "uint256",
                    "name": "tokenId",
                    "type": "uint256"
                }
            ],
            "name": "Transfer",
            "type": "event"
        },
        {
            "inputs": [
                {
                    "internalType": "address",
                    "name": "to",
                    "type": "address"
                },
                {
                    "internalType": "uint256",
                    "name": "tokenId",
                    "type": "uint256"
                }
            ],
            "name": "approve",
            "outputs": [],
            "stateMutability": "nonpayable",
            "type": "function"
        },
        {
            "inputs": [
                {
                    "internalType": "address",
                    "name": "owner",
                    "type": "address"
                }
            ],
            "name": "balanceOf",
            "outputs": [
                {
                    "internalType": "uint256",
                    "name": "",
                    "type": "uint256"
                }
            ],
            "stateMutability": "view",
            "type": "function"
        },
        {
            "inputs": [],
            "name": "baseUri",
            "outputs": [
                {
                    "internalType": "string",
                    "name": "",
                    "type": "string"
                }
            ],
            "stateMutability": "view",
            "type": "function"
        },
        {
            "inputs": [
                {
                    "internalType": "uint256",
                    "name": "tokenId",
                    "type": "uint256"
                }
            ],
            "name": "getApproved",
            "outputs": [
                {
                    "internalType": "address",
                    "name": "",
                    "type": "address"
                }
            ],
            "stateMutability": "view",
            "type": "function"
        },
        {
            "inputs": [
                {
                    "internalType": "address",
                    "name": "owner",
                    "type": "address"
                },
                {
                    "internalType": "address",
                    "name": "operator",
                    "type": "address"
                }
            ],
            "name": "isApprovedForAll",
            "outputs": [
                {
                    "internalType": "bool",
                    "name": "",
                    "type": "bool"
                }
            ],
            "stateMutability": "view",
            "type": "function"
        },
        {
            "inputs": [
                {
                    "internalType": "uint256",
                    "name": "tokenId",
                    "type": "uint256"
                }
            ],
            "name": "mint",
            "outputs": [
                {
                    "internalType": "bool",
                    "name": "",
                    "type": "bool"
                }
            ],
            "stateMutability": "nonpayable",
            "type": "function"
        },
        {
            "inputs": [],
            "name": "name",
            "outputs": [
                {
                    "internalType": "string",
                    "name": "",
                    "type": "string"
                }
            ],
            "stateMutability": "view",
            "type": "function"
        },
        {
            "inputs": [
                {
                    "internalType": "uint256",
                    "name": "tokenId",
                    "type": "uint256"
                }
            ],
            "name": "ownerOf",
            "outputs": [
                {
                    "internalType": "address",
                    "name": "",
                    "type": "address"
                }
            ],
            "stateMutability": "view",
            "type": "function"
        },
        {
            "inputs": [
                {
                    "internalType": "address",
                    "name": "from",
                    "type": "address"
                },
                {
                    "internalType": "address",
                    "name": "to",
                    "type": "address"
                },
                {
                    "internalType": "uint256",
                    "name": "tokenId",
                    "type": "uint256"
                }
            ],
            "name": "safeTransferFrom",
            "outputs": [],
            "stateMutability": "nonpayable",
            "type": "function"
        },
        {
            "inputs": [
                {
                    "internalType": "address",
                    "name": "from",
                    "type": "address"
                },
                {
                    "internalType": "address",
                    "name": "to",
                    "type": "address"
                },
                {
                    "internalType": "uint256",
                    "name": "tokenId",
                    "type": "uint256"
                },
                {
                    "internalType": "bytes",
                    "name": "data",
                    "type": "bytes"
                }
            ],
            "name": "safeTransferFrom",
            "outputs": [],
            "stateMutability": "nonpayable",
            "type": "function"
        },
        {
            "inputs": [
                {
                    "internalType": "address",
                    "name": "operator",
                    "type": "address"
                },
                {
                    "internalType": "bool",
                    "name": "approved",
                    "type": "bool"
                }
            ],
            "name": "setApprovalForAll",
            "outputs": [],
            "stateMutability": "nonpayable",
            "type": "function"
        },
        {
            "inputs": [
                {
                    "internalType": "bytes4",
                    "name": "interfaceId",
                    "type": "bytes4"
                }
            ],
            "name": "supportsInterface",
            "outputs": [
                {
                    "internalType": "bool",
                    "name": "",
                    "type": "bool"
                }
            ],
            "stateMutability": "view",
            "type": "function"
        },
        {
            "inputs": [],
            "name": "symbol",
            "outputs": [
                {
                    "internalType": "string",
                    "name": "",
                    "type": "string"
                }
            ],
            "stateMutability": "view",
            "type": "function"
        },
        {
            "inputs": [
                {
                    "internalType": "uint256",
                    "name": "tokenId",
                    "type": "uint256"
                }
            ],
            "name": "tokenURI",
            "outputs": [
                {
                    "internalType": "string",
                    "name": "",
                    "type": "string"
                }
            ],
            "stateMutability": "view",
            "type": "function"
        },
        {
            "inputs": [
                {
                    "internalType": "address",
                    "name": "from",
                    "type": "address"
                },
                {
                    "internalType": "address",
                    "name": "to",
                    "type": "address"
                },
                {
                    "internalType": "uint256",
                    "name": "tokenId",
                    "type": "uint256"
                }
            ],
            "name": "transferFrom",
            "outputs": [],
            "stateMutability": "nonpayable",
            "type": "function"
        }
    ],
    "bytecode": "0x60806040526040518060400160405280601581526020017f74686973206973207468652062617365207572692f0000000000000000000000815250600790816200004a919062000328565b503480156200005857600080fd5b50604051620026683803806200266883398181016040528101906200007e919062000573565b8181816000908162000091919062000328565b508060019081620000a3919062000328565b5050505050620005f8565b600081519050919050565b7f4e487b7100000000000000000000000000000000000000000000000000000000600052604160045260246000fd5b7f4e487b7100000000000000000000000000000000000000000000000000000000600052602260045260246000fd5b600060028204905060018216806200013057607f821691505b602082108103620001465762000145620000e8565b5b50919050565b60008190508160005260206000209050919050565b60006020601f8301049050919050565b600082821b905092915050565b600060088302620001b07fffffffffffffffffffffffffffffffffffffffffffffffffffffffffffffffff8262000171565b620001bc868362000171565b95508019841693508086168417925050509392505050565b6000819050919050565b6000819050919050565b60006200020962000203620001fd84620001d4565b620001de565b620001d4565b9050919050565b6000819050919050565b6200022583620001e8565b6200023d620002348262000210565b8484546200017e565b825550505050565b600090565b6200025462000245565b620002618184846200021a565b505050565b5b8181101562000289576200027d6000826200024a565b60018101905062000267565b5050565b601f821115620002d857620002a2816200014c565b620002ad8462000161565b81016020851015620002bd578190505b620002d5620002cc8562000161565b83018262000266565b50505b505050565b600082821c905092915050565b6000620002fd60001984600802620002dd565b1980831691505092915050565b6000620003188383620002ea565b9150826002028217905092915050565b6200033382620000ae565b67ffffffffffffffff8111156200034f576200034e620000b9565b5b6200035b825462000117565b620003688282856200028d565b600060209050601f831160018114620003a057600084156200038b578287015190505b6200039785826200030a565b86555062000407565b601f198416620003b0866200014c565b60005b82811015620003da57848901518255600182019150602085019450602081019050620003b3565b86831015620003fa5784890151620003f6601f891682620002ea565b8355505b6001600288020188555050505b505050505050565b6000604051905090565b600080fd5b600080fd5b600080fd5b600080fd5b6000601f19601f8301169050919050565b62000449826200042d565b810181811067ffffffffffffffff821117156200046b576200046a620000b9565b5b80604052505050565b6000620004806200040f565b90506200048e82826200043e565b919050565b600067ffffffffffffffff821115620004b157620004b0620000b9565b5b620004bc826200042d565b9050602081019050919050565b60005b83811015620004e9578082015181840152602081019050620004cc565b60008484015250505050565b60006200050c620005068462000493565b62000474565b9050828152602081018484840111156200052b576200052a62000428565b5b62000538848285620004c9565b509392505050565b600082601f83011262000558576200055762000423565b5b81516200056a848260208601620004f5565b91505092915050565b600080604083850312156200058d576200058c62000419565b5b600083015167ffffffffffffffff811115620005ae57620005ad6200041e565b5b620005bc8582860162000540565b925050602083015167ffffffffffffffff811115620005e057620005df6200041e565b5b620005ee8582860162000540565b9150509250929050565b61206080620006086000396000f3fe608060405234801561001057600080fd5b50600436106100f55760003560e01c806370a0823111610097578063a22cb46511610066578063a22cb46514610298578063b88d4fde146102b4578063c87b56dd146102d0578063e985e9c514610300576100f5565b806370a08231146101fc57806395d89b411461022c5780639abc83201461024a578063a0712d6814610268576100f5565b8063095ea7b3116100d3578063095ea7b31461017857806323b872dd1461019457806342842e0e146101b05780636352211e146101cc576100f5565b806301ffc9a7146100fa57806306fdde031461012a578063081812fc14610148575b600080fd5b610114600480360381019061010f91906118aa565b610330565b60405161012191906118f2565b60405180910390f35b610132610391565b60405161013f919061199d565b60405180910390f35b610162600480360381019061015d91906119f5565b610423565b60405161016f9190611a63565b60405180910390f35b610192600480360381019061018d9190611aaa565b61043f565b005b6101ae60048036038101906101a99190611aea565b610455565b005b6101ca60048036038101906101c59190611aea565b610557565b005b6101e660048036038101906101e191906119f5565b610577565b6040516101f39190611a63565b60405180910390f35b61021660048036038101906102119190611b3d565b610589565b6040516102239190611b79565b60405180910390f35b610234610643565b604051610241919061199d565b60405180910390f35b6102526106d5565b60405161025f919061199d565b60405180910390f35b610282600480360381019061027d91906119f5565b610763565b60405161028f91906118f2565b60405180910390f35b6102b260048036038101906102ad9190611bc0565b610778565b005b6102ce60048036038101906102c99190611d35565b61078e565b005b6102ea60048036038101906102e591906119f5565b6107ab565b6040516102f7919061199d565b60405180910390f35b61031a60048036038101906103159190611db8565b6108be565b60405161032791906118f2565b60405180910390f35b6000634906490660e01b7bffffffffffffffffffffffffffffffffffffffffffffffffffffffff1916827bffffffffffffffffffffffffffffffffffffffffffffffffffffffff1916148061038a575061038982610952565b5b9050919050565b6060600080546103a090611e27565b80601f01602080910402602001604051908101604052809291908181526020018280546103cc90611e27565b80156104195780601f106103ee57610100808354040283529160200191610419565b820191906000526020600020905b8154815290600101906020018083116103fc57829003601f168201915b5050505050905090565b600061042e82610a34565b5061043882610abc565b9050919050565b610451828261044c610af9565b610b01565b5050565b600073ffffffffffffffffffffffffffffffffffffffff168273ffffffffffffffffffffffffffffffffffffffff16036104c75760006040517f64a0ae920000000000000000000000000000000000000000000000000000000081526004016104be9190611a63565b60405180910390fd5b60006104db83836104d6610af9565b610b13565b90508373ffffffffffffffffffffffffffffffffffffffff168173ffffffffffffffffffffffffffffffffffffffff1614610551578382826040517f64283d7b00000000000000000000000000000000000000000000000000000000815260040161054893929190611e58565b60405180910390fd5b50505050565b6105728383836040518060200160405280600081525061078e565b505050565b600061058282610a34565b9050919050565b60008073ffffffffffffffffffffffffffffffffffffffff168273ffffffffffffffffffffffffffffffffffffffff16036105fc5760006040517f89c62b640000000000000000000000000000000000000000000000000000000081526004016105f39190611a63565b60405180910390fd5b600360008373ffffffffffffffffffffffffffffffffffffffff1673ffffffffffffffffffffffffffffffffffffffff168152602001908152602001600020549050919050565b60606001805461065290611e27565b80601f016020809104026020016040519081016040528092919081815260200182805461067e90611e27565b80156106cb5780601f106106a0576101008083540402835291602001916106cb565b820191906000526020600020905b8154815290600101906020018083116106ae57829003601f168201915b5050505050905090565b600780546106e290611e27565b80601f016020809104026020016040519081016040528092919081815260200182805461070e90611e27565b801561075b5780601f106107305761010080835404028352916020019161075b565b820191906000526020600020905b81548152906001019060200180831161073e57829003601f168201915b505050505081565b600061076f3383610d2d565b60019050919050565b61078a610783610af9565b8383610d4b565b5050565b610799848484610455565b6107a584848484610eba565b50505050565b60606107b682610a34565b5060006006600084815260200190815260200160002080546107d790611e27565b80601f016020809104026020016040519081016040528092919081815260200182805461080390611e27565b80156108505780601f1061082557610100808354040283529160200191610850565b820191906000526020600020905b81548152906001019060200180831161083357829003601f168201915b505050505090506000610861611071565b905060008151036108765781925050506108b9565b6000825111156108ab578082604051602001610893929190611ecb565b604051602081830303815290604052925050506108b9565b6108b4846110ae565b925050505b919050565b6000600560008473ffffffffffffffffffffffffffffffffffffffff1673ffffffffffffffffffffffffffffffffffffffff16815260200190815260200160002060008373ffffffffffffffffffffffffffffffffffffffff1673ffffffffffffffffffffffffffffffffffffffff16815260200190815260200160002060009054906101000a900460ff16905092915050565b60007f80ac58cd000000000000000000000000000000000000000000000000000000007bffffffffffffffffffffffffffffffffffffffffffffffffffffffff1916827bffffffffffffffffffffffffffffffffffffffffffffffffffffffff19161480610a1d57507f5b5e139f000000000000000000000000000000000000000000000000000000007bffffffffffffffffffffffffffffffffffffffffffffffffffffffff1916827bffffffffffffffffffffffffffffffffffffffffffffffffffffffff1916145b80610a2d5750610a2c82611117565b5b9050919050565b600080610a4083611181565b9050600073ffffffffffffffffffffffffffffffffffffffff168173ffffffffffffffffffffffffffffffffffffffff1603610ab357826040517f7e273289000000000000000000000000000000000000000000000000000000008152600401610aaa9190611b79565b60405180910390fd5b80915050919050565b60006004600083815260200190815260200160002060009054906101000a900473ffffffffffffffffffffffffffffffffffffffff169050919050565b600033905090565b610b0e83838360016111be565b505050565b600080610b1f84611181565b9050600073ffffffffffffffffffffffffffffffffffffffff168373ffffffffffffffffffffffffffffffffffffffff1614610b6157610b60818486611383565b5b600073ffffffffffffffffffffffffffffffffffffffff168173ffffffffffffffffffffffffffffffffffffffff1614610bf257610ba36000856000806111be565b6001600360008373ffffffffffffffffffffffffffffffffffffffff1673ffffffffffffffffffffffffffffffffffffffff168152602001908152602001600020600082825403925050819055505b600073ffffffffffffffffffffffffffffffffffffffff168573ffffffffffffffffffffffffffffffffffffffff1614610c75576001600360008773ffffffffffffffffffffffffffffffffffffffff1673ffffffffffffffffffffffffffffffffffffffff168152602001908152602001600020600082825401925050819055505b846002600086815260200190815260200160002060006101000a81548173ffffffffffffffffffffffffffffffffffffffff021916908373ffffffffffffffffffffffffffffffffffffffff160217905550838573ffffffffffffffffffffffffffffffffffffffff168273ffffffffffffffffffffffffffffffffffffffff167fddf252ad1be2c89b69c2b068fc378daa952ba7f163c4a11628f55a4df523b3ef60405160405180910390a4809150509392505050565b610d47828260405180602001604052806000815250611447565b5050565b600073ffffffffffffffffffffffffffffffffffffffff168273ffffffffffffffffffffffffffffffffffffffff1603610dbc57816040517f5b08ba18000000000000000000000000000000000000000000000000000000008152600401610db39190611a63565b60405180910390fd5b80600560008573ffffffffffffffffffffffffffffffffffffffff1673ffffffffffffffffffffffffffffffffffffffff16815260200190815260200160002060008473ffffffffffffffffffffffffffffffffffffffff1673ffffffffffffffffffffffffffffffffffffffff16815260200190815260200160002060006101000a81548160ff0219169083151502179055508173ffffffffffffffffffffffffffffffffffffffff168373ffffffffffffffffffffffffffffffffffffffff167f17307eab39ab6107e8899845ad3d59bd9653f200f220920489ca2b5937696c3183604051610ead91906118f2565b60405180910390a3505050565b60008373ffffffffffffffffffffffffffffffffffffffff163b111561106b578273ffffffffffffffffffffffffffffffffffffffff1663150b7a02610efe610af9565b8685856040518563ffffffff1660e01b8152600401610f209493929190611f44565b6020604051808303816000875af1925050508015610f5c57506040513d601f19601f82011682018060405250810190610f599190611fa5565b60015b610fe0573d8060008114610f8c576040519150601f19603f3d011682016040523d82523d6000602084013e610f91565b606091505b506000815103610fd857836040517f64a0ae92000000000000000000000000000000000000000000000000000000008152600401610fcf9190611a63565b60405180910390fd5b805181602001fd5b63150b7a0260e01b7bffffffffffffffffffffffffffffffffffffffffffffffffffffffff1916817bffffffffffffffffffffffffffffffffffffffffffffffffffffffff19161461106957836040517f64a0ae920000000000000000000000000000000000000000000000000000000081526004016110609190611a63565b60405180910390fd5b505b50505050565b60606040518060400160405280600d81526020017f5468652062617365205552492f00000000000000000000000000000000000000815250905090565b60606110b982610a34565b5060006110c4611071565b905060008151116110e4576040518060200160405280600081525061110f565b806110ee84611463565b6040516020016110ff929190611ecb565b6040516020818303038152906040525b915050919050565b60007f01ffc9a7000000000000000000000000000000000000000000000000000000007bffffffffffffffffffffffffffffffffffffffffffffffffffffffff1916827bffffffffffffffffffffffffffffffffffffffffffffffffffffffff1916149050919050565b60006002600083815260200190815260200160002060009054906101000a900473ffffffffffffffffffffffffffffffffffffffff169050919050565b80806111f75750600073ffffffffffffffffffffffffffffffffffffffff168273ffffffffffffffffffffffffffffffffffffffff1614155b1561132b57600061120784610a34565b9050600073ffffffffffffffffffffffffffffffffffffffff168373ffffffffffffffffffffffffffffffffffffffff161415801561127257508273ffffffffffffffffffffffffffffffffffffffff168173ffffffffffffffffffffffffffffffffffffffff1614155b8015611285575061128381846108be565b155b156112c757826040517fa9fbf51f0000000000000000000000000000000000000000000000000000000081526004016112be9190611a63565b60405180910390fd5b811561132957838573ffffffffffffffffffffffffffffffffffffffff168273ffffffffffffffffffffffffffffffffffffffff167f8c5be1e5ebec7d5bd14f71427d1e84f3dd0314c0f7b2291e5b200ac8c7c3b92560405160405180910390a45b505b836004600085815260200190815260200160002060006101000a81548173ffffffffffffffffffffffffffffffffffffffff021916908373ffffffffffffffffffffffffffffffffffffffff16021790555050505050565b61138e838383611531565b61144257600073ffffffffffffffffffffffffffffffffffffffff168373ffffffffffffffffffffffffffffffffffffffff160361140357806040517f7e2732890000000000000000000000000000000000000000000000000000000081526004016113fa9190611b79565b60405180910390fd5b81816040517f177e802f000000000000000000000000000000000000000000000000000000008152600401611439929190611fd2565b60405180910390fd5b505050565b61145183836115f2565b61145e6000848484610eba565b505050565b606060006001611472846116eb565b01905060008167ffffffffffffffff81111561149157611490611c0a565b5b6040519080825280601f01601f1916602001820160405280156114c35781602001600182028036833780820191505090505b509050600082602001820190505b600115611526578080600190039150507f3031323334353637383961626364656600000000000000000000000000000000600a86061a8153600a858161151a57611519611ffb565b5b049450600085036114d1575b819350505050919050565b60008073ffffffffffffffffffffffffffffffffffffffff168373ffffffffffffffffffffffffffffffffffffffff16141580156115e957508273ffffffffffffffffffffffffffffffffffffffff168473ffffffffffffffffffffffffffffffffffffffff1614806115aa57506115a984846108be565b5b806115e857508273ffffffffffffffffffffffffffffffffffffffff166115d083610abc565b73ffffffffffffffffffffffffffffffffffffffff16145b5b90509392505050565b600073ffffffffffffffffffffffffffffffffffffffff168273ffffffffffffffffffffffffffffffffffffffff16036116645760006040517f64a0ae9200000000000000000000000000000000000000000000000000000000815260040161165b9190611a63565b60405180910390fd5b600061167283836000610b13565b9050600073ffffffffffffffffffffffffffffffffffffffff168173ffffffffffffffffffffffffffffffffffffffff16146116e65760006040517f73c6ac6e0000000000000000000000000000000000000000000000000000000081526004016116dd9190611a63565b60405180910390fd5b505050565b600080600090507a184f03e93ff9f4daa797ed6e38ed64bf6a1f0100000000000000008310611749577a184f03e93ff9f4daa797ed6e38ed64bf6a1f010000000000000000838161173f5761173e611ffb565b5b0492506040810190505b6d04ee2d6d415b85acef81000000008310611786576d04ee2d6d415b85acef8100000000838161177c5761177b611ffb565b5b0492506020810190505b662386f26fc1000083106117b557662386f26fc1000083816117ab576117aa611ffb565b5b0492506010810190505b6305f5e10083106117de576305f5e10083816117d4576117d3611ffb565b5b0492506008810190505b61271083106118035761271083816117f9576117f8611ffb565b5b0492506004810190505b60648310611826576064838161181c5761181b611ffb565b5b0492506002810190505b600a8310611835576001810190505b80915050919050565b6000604051905090565b600080fd5b600080fd5b60007fffffffff0000000000000000000000000000000000000000000000000000000082169050919050565b61188781611852565b811461189257600080fd5b50565b6000813590506118a48161187e565b92915050565b6000602082840312156118c0576118bf611848565b5b60006118ce84828501611895565b91505092915050565b60008115159050919050565b6118ec816118d7565b82525050565b600060208201905061190760008301846118e3565b92915050565b600081519050919050565b600082825260208201905092915050565b60005b8381101561194757808201518184015260208101905061192c565b60008484015250505050565b6000601f19601f8301169050919050565b600061196f8261190d565b6119798185611918565b9350611989818560208601611929565b61199281611953565b840191505092915050565b600060208201905081810360008301526119b78184611964565b905092915050565b6000819050919050565b6119d2816119bf565b81146119dd57600080fd5b50565b6000813590506119ef816119c9565b92915050565b600060208284031215611a0b57611a0a611848565b5b6000611a19848285016119e0565b91505092915050565b600073ffffffffffffffffffffffffffffffffffffffff82169050919050565b6000611a4d82611a22565b9050919050565b611a5d81611a42565b82525050565b6000602082019050611a786000830184611a54565b92915050565b611a8781611a42565b8114611a9257600080fd5b50565b600081359050611aa481611a7e565b92915050565b60008060408385031215611ac157611ac0611848565b5b6000611acf85828601611a95565b9250506020611ae0858286016119e0565b9150509250929050565b600080600060608486031215611b0357611b02611848565b5b6000611b1186828701611a95565b9350506020611b2286828701611a95565b9250506040611b33868287016119e0565b9150509250925092565b600060208284031215611b5357611b52611848565b5b6000611b6184828501611a95565b91505092915050565b611b73816119bf565b82525050565b6000602082019050611b8e6000830184611b6a565b92915050565b611b9d816118d7565b8114611ba857600080fd5b50565b600081359050611bba81611b94565b92915050565b60008060408385031215611bd757611bd6611848565b5b6000611be585828601611a95565b9250506020611bf685828601611bab565b9150509250929050565b600080fd5b600080fd5b7f4e487b7100000000000000000000000000000000000000000000000000000000600052604160045260246000fd5b611c4282611953565b810181811067ffffffffffffffff82111715611c6157611c60611c0a565b5b80604052505050565b6000611c7461183e565b9050611c808282611c39565b919050565b600067ffffffffffffffff821115611ca057611c9f611c0a565b5b611ca982611953565b9050602081019050919050565b82818337600083830152505050565b6000611cd8611cd384611c85565b611c6a565b905082815260208101848484011115611cf457611cf3611c05565b5b611cff848285611cb6565b509392505050565b600082601f830112611d1c57611d1b611c00565b5b8135611d2c848260208601611cc5565b91505092915050565b60008060008060808587031215611d4f57611d4e611848565b5b6000611d5d87828801611a95565b9450506020611d6e87828801611a95565b9350506040611d7f878288016119e0565b925050606085013567ffffffffffffffff811115611da057611d9f61184d565b5b611dac87828801611d07565b91505092959194509250565b60008060408385031215611dcf57611dce611848565b5b6000611ddd85828601611a95565b9250506020611dee85828601611a95565b9150509250929050565b7f4e487b7100000000000000000000000000000000000000000000000000000000600052602260045260246000fd5b60006002820490506001821680611e3f57607f821691505b602082108103611e5257611e51611df8565b5b50919050565b6000606082019050611e6d6000830186611a54565b611e7a6020830185611b6a565b611e876040830184611a54565b949350505050565b600081905092915050565b6000611ea58261190d565b611eaf8185611e8f565b9350611ebf818560208601611929565b80840191505092915050565b6000611ed78285611e9a565b9150611ee38284611e9a565b91508190509392505050565b600081519050919050565b600082825260208201905092915050565b6000611f1682611eef565b611f208185611efa565b9350611f30818560208601611929565b611f3981611953565b840191505092915050565b6000608082019050611f596000830187611a54565b611f666020830186611a54565b611f736040830185611b6a565b8181036060830152611f858184611f0b565b905095945050505050565b600081519050611f9f8161187e565b92915050565b600060208284031215611fbb57611fba611848565b5b6000611fc984828501611f90565b91505092915050565b6000604082019050611fe76000830185611a54565b611ff46020830184611b6a565b9392505050565b7f4e487b7100000000000000000000000000000000000000000000000000000000600052601260045260246000fdfea2646970667358221220582b7fb7baa665f61c5618131b2e81d046bfab6b6f636cb87de413a83c319d2964736f6c63430008180033",
    "linkReferences": {},
    "deployedLinkReferences": {}
}