{
    "_format": "hh-sol-artifact-1",
    "contractName": "NftMarketplace",
    "sourceName": "contracts/NftMarketplace.sol",
    "abi": [
        {
            "inputs": [
                {
                    "internalType": "address",
                    "name": "_mintAddress",
                    "type": "address"
                }
            ],
            "stateMutability": "nonpayable",
            "type": "constructor"
        },
        {
            "inputs": [
                {
                    "internalType": "uint256",
                    "name": "tokenId",
                    "type": "uint256"
                }
            ],
            "name": "buyNft",
            "outputs": [
                {
                    "internalType": "address",
                    "name": "",
                    "type": "address"
                }
            ],
            "stateMutability": "payable",
            "type": "function"
        },
        {
            "inputs": [],
            "name": "getAllListed",
            "outputs": [
                {
                    "internalType": "uint256[]",
                    "name": "",
                    "type": "uint256[]"
                }
            ],
            "stateMutability": "view",
            "type": "function"
        },
        {
            "inputs": [
                {
                    "internalType": "address",
                    "name": "_address",
                    "type": "address"
                }
            ],
            "name": "getListedByAddress",
            "outputs": [
                {
                    "internalType": "uint256[]",
                    "name": "",
                    "type": "uint256[]"
                }
            ],
            "stateMutability": "view",
            "type": "function"
        },
        {
            "inputs": [
                {
                    "internalType": "address",
                    "name": "contractAddress",
                    "type": "address"
                },
                {
                    "internalType": "uint256",
                    "name": "tokenId",
                    "type": "uint256"
                },
                {
                    "internalType": "uint256",
                    "name": "priceInWei",
                    "type": "uint256"
                }
            ],
            "name": "list",
            "outputs": [
                {
                    "internalType": "bool",
                    "name": "",
                    "type": "bool"
                }
            ],
            "stateMutability": "nonpayable",
            "type": "function"
        },
        {
            "inputs": [
                {
                    "internalType": "address",
                    "name": "mintAddress",
                    "type": "address"
                },
                {
                    "internalType": "uint256",
                    "name": "tokenId",
                    "type": "uint256"
                }
            ],
            "name": "tokenListed",
            "outputs": [
                {
                    "internalType": "uint256",
                    "name": "tokenId",
                    "type": "uint256"
                },
                {
                    "internalType": "address",
                    "name": "owner",
                    "type": "address"
                },
                {
                    "internalType": "uint256",
                    "name": "time",
                    "type": "uint256"
                },
                {
                    "internalType": "bool",
                    "name": "isActive",
                    "type": "bool"
                },
                {
                    "internalType": "string",
                    "name": "tokenUri",
                    "type": "string"
                },
                {
                    "internalType": "uint256",
                    "name": "price",
                    "type": "uint256"
                }
            ],
            "stateMutability": "view",
            "type": "function"
        }
    ],
    "bytecode": "0x60a06040523480156200001157600080fd5b5060405162002265380380620022658339818101604052810190620000379190620000dc565b8073ffffffffffffffffffffffffffffffffffffffff1660808173ffffffffffffffffffffffffffffffffffffffff1681525050506200010e565b600080fd5b600073ffffffffffffffffffffffffffffffffffffffff82169050919050565b6000620000a48262000077565b9050919050565b620000b68162000097565b8114620000c257600080fd5b50565b600081519050620000d681620000ab565b92915050565b600060208284031215620000f557620000f462000072565b5b60006200010584828501620000c5565b91505092915050565b6080516120e062000185600039600081816101cc015281816102fc015281816103cf015281816104c201528181610573015281816105af015281816106a0015281816109c601528181610b7201528181610c4001528181610cfc01528181610d3801528181610f32015261105e01526120e06000f3fe60806040526004361061004a5760003560e01c8063243adbdd1461004f578063374ce87c1461007f5780636237a769146100bc578063dda342bb146100e7578063fa6aa54614610124575b600080fd5b61006960048036038101906100649190611446565b610166565b60405161007691906114b4565b60405180910390f35b34801561008b57600080fd5b506100a660048036038101906100a191906114fb565b610a68565b6040516100b391906115e6565b60405180910390f35b3480156100c857600080fd5b506100d1610aff565b6040516100de91906115e6565b60405180910390f35b3480156100f357600080fd5b5061010e60048036038101906101099190611608565b610b57565b60405161011b9190611676565b60405180910390f35b34801561013057600080fd5b5061014b60048036038101906101469190611691565b61128b565b60405161015d96959493929190611770565b60405180910390f35b6000806101c38360028054806020026020016040519081016040528092919081815260200182805480156101b957602002820191906000526020600020905b8154815260200190600101908083116101a5575b5050505050611389565b905060008060007f000000000000000000000000000000000000000000000000000000000000000073ffffffffffffffffffffffffffffffffffffffff1673ffffffffffffffffffffffffffffffffffffffff168152602001908152602001600020600085815260200190815260200160002060010160009054906101000a900473ffffffffffffffffffffffffffffffffffffffff16905060006102f585600160008573ffffffffffffffffffffffffffffffffffffffff1673ffffffffffffffffffffffffffffffffffffffff1681526020019081526020016000208054806020026020016040519081016040528092919081815260200182805480156102eb57602002820191906000526020600020905b8154815260200190600101908083116102d7575b5050505050611389565b90506000807f000000000000000000000000000000000000000000000000000000000000000073ffffffffffffffffffffffffffffffffffffffff1673ffffffffffffffffffffffffffffffffffffffff168152602001908152602001600020600086815260200190815260200160002060030160009054906101000a900460ff166103b6576040517f08c379a00000000000000000000000000000000000000000000000000000000081526004016103ad90611824565b60405180910390fd5b3073ffffffffffffffffffffffffffffffffffffffff167f000000000000000000000000000000000000000000000000000000000000000073ffffffffffffffffffffffffffffffffffffffff1663081812fc876040518263ffffffff1660e01b81526004016104269190611844565b602060405180830381865afa158015610443573d6000803e3d6000fd5b505050506040513d601f19601f820116820180604052508101906104679190611874565b73ffffffffffffffffffffffffffffffffffffffff16146104bd576040517f08c379a00000000000000000000000000000000000000000000000000000000081526004016104b4906118ed565b60405180910390fd5b6000807f000000000000000000000000000000000000000000000000000000000000000073ffffffffffffffffffffffffffffffffffffffff1673ffffffffffffffffffffffffffffffffffffffff1681526020019081526020016000206000868152602001908152602001600020600501543414610571576040517f08c379a000000000000000000000000000000000000000000000000000000000815260040161056890611959565b60405180910390fd5b7f000000000000000000000000000000000000000000000000000000000000000073ffffffffffffffffffffffffffffffffffffffff166342842e0e7f000000000000000000000000000000000000000000000000000000000000000073ffffffffffffffffffffffffffffffffffffffff16636352211e886040518263ffffffff1660e01b81526004016106069190611844565b602060405180830381865afa158015610623573d6000803e3d6000fd5b505050506040513d601f19601f820116820180604052508101906106479190611874565b33886040518463ffffffff1660e01b815260040161066793929190611979565b600060405180830381600087803b15801561068157600080fd5b505af1158015610695573d6000803e3d6000fd5b5050505060008060007f000000000000000000000000000000000000000000000000000000000000000073ffffffffffffffffffffffffffffffffffffffff1673ffffffffffffffffffffffffffffffffffffffff168152602001908152602001600020600087815260200190815260200160002060030160006101000a81548160ff0219169083151502179055506002600160028054905061073891906119df565b8154811061074957610748611a13565b5b90600052602060002001546002848154811061076857610767611a13565b5b9060005260206000200181905550600280548061078857610787611a42565b5b60019003818190600052602060002001600090559055600160008373ffffffffffffffffffffffffffffffffffffffff1673ffffffffffffffffffffffffffffffffffffffff16815260200190815260200160002060018060008573ffffffffffffffffffffffffffffffffffffffff1673ffffffffffffffffffffffffffffffffffffffff1681526020019081526020016000208054905061082b91906119df565b8154811061083c5761083b611a13565b5b9060005260206000200154600160008473ffffffffffffffffffffffffffffffffffffffff1673ffffffffffffffffffffffffffffffffffffffff168152602001908152602001600020828154811061089857610897611a13565b5b9060005260206000200181905550600160008373ffffffffffffffffffffffffffffffffffffffff1673ffffffffffffffffffffffffffffffffffffffff1681526020019081526020016000208054806108f5576108f4611a42565b5b600190038181906000526020600020016000905590556000803373ffffffffffffffffffffffffffffffffffffffff1673ffffffffffffffffffffffffffffffffffffffff168152602001908152602001600020600086815260200190815260200160002060010160009054906101000a900473ffffffffffffffffffffffffffffffffffffffff1673ffffffffffffffffffffffffffffffffffffffff166108fc349081150290604051600060405180830381858888f193505050501580156109c3573d6000803e3d6000fd5b507f000000000000000000000000000000000000000000000000000000000000000073ffffffffffffffffffffffffffffffffffffffff16636352211e866040518263ffffffff1660e01b8152600401610a1d9190611844565b602060405180830381865afa158015610a3a573d6000803e3d6000fd5b505050506040513d601f19601f82011682018060405250810190610a5e9190611874565b9350505050919050565b6060600160008373ffffffffffffffffffffffffffffffffffffffff1673ffffffffffffffffffffffffffffffffffffffff168152602001908152602001600020805480602002602001604051908101604052809291908181526020018280548015610af357602002820191906000526020600020905b815481526020019060010190808311610adf575b50505050509050919050565b60606002805480602002602001604051908101604052809291908181526020018280548015610b4d57602002820191906000526020600020905b815481526020019060010190808311610b39575b5050505050905090565b60003373ffffffffffffffffffffffffffffffffffffffff167f000000000000000000000000000000000000000000000000000000000000000073ffffffffffffffffffffffffffffffffffffffff16636352211e856040518263ffffffff1660e01b8152600401610bc99190611844565b602060405180830381865afa158015610be6573d6000803e3d6000fd5b505050506040513d601f19601f82011682018060405250810190610c0a9190611874565b73ffffffffffffffffffffffffffffffffffffffff161480610cf057503373ffffffffffffffffffffffffffffffffffffffff167f000000000000000000000000000000000000000000000000000000000000000073ffffffffffffffffffffffffffffffffffffffff1663081812fc856040518263ffffffff1660e01b8152600401610c979190611844565b602060405180830381865afa158015610cb4573d6000803e3d6000fd5b505050506040513d601f19601f82011682018060405250810190610cd89190611874565b73ffffffffffffffffffffffffffffffffffffffff16145b80610e335750600115157f000000000000000000000000000000000000000000000000000000000000000073ffffffffffffffffffffffffffffffffffffffff1663e985e9c57f000000000000000000000000000000000000000000000000000000000000000073ffffffffffffffffffffffffffffffffffffffff16636352211e876040518263ffffffff1660e01b8152600401610d8f9190611844565b602060405180830381865afa158015610dac573d6000803e3d6000fd5b505050506040513d601f19601f82011682018060405250810190610dd09190611874565b336040518363ffffffff1660e01b8152600401610dee929190611a71565b602060405180830381865afa158015610e0b573d6000803e3d6000fd5b505050506040513d601f19601f82011682018060405250810190610e2f9190611ac6565b1515145b610e72576040517f08c379a0000000000000000000000000000000000000000000000000000000008152600401610e6990611b65565b60405180910390fd5b600015156000808673ffffffffffffffffffffffffffffffffffffffff1673ffffffffffffffffffffffffffffffffffffffff168152602001908152602001600020600085815260200190815260200160002060030160009054906101000a900460ff16151514610f18576040517f08c379a0000000000000000000000000000000000000000000000000000000008152600401610f0f90611bd1565b60405180910390fd5b600073ffffffffffffffffffffffffffffffffffffffff167f000000000000000000000000000000000000000000000000000000000000000073ffffffffffffffffffffffffffffffffffffffff16636352211e856040518263ffffffff1660e01b8152600401610f899190611844565b602060405180830381865afa158015610fa6573d6000803e3d6000fd5b505050506040513d601f19601f82011682018060405250810190610fca9190611874565b73ffffffffffffffffffffffffffffffffffffffff1603611020576040517f08c379a000000000000000000000000000000000000000000000000000000000815260040161101790611c3d565b60405180910390fd5b6040518060c001604052808481526020013373ffffffffffffffffffffffffffffffffffffffff1681526020014281526020016001151581526020017f000000000000000000000000000000000000000000000000000000000000000073ffffffffffffffffffffffffffffffffffffffff1663c87b56dd866040518263ffffffff1660e01b81526004016110b59190611844565b600060405180830381865afa1580156110d2573d6000803e3d6000fd5b505050506040513d6000823e3d601f19601f820116820180604052508101906110fb9190611d83565b8152602001838152506000808673ffffffffffffffffffffffffffffffffffffffff1673ffffffffffffffffffffffffffffffffffffffff16815260200190815260200160002060008581526020019081526020016000206000820151816000015560208201518160010160006101000a81548173ffffffffffffffffffffffffffffffffffffffff021916908373ffffffffffffffffffffffffffffffffffffffff1602179055506040820151816002015560608201518160030160006101000a81548160ff02191690831515021790555060808201518160040190816111e39190611fd8565b5060a082015181600501559050506002839080600181540180825580915050600190039060005260206000200160009091909190915055600160003373ffffffffffffffffffffffffffffffffffffffff1673ffffffffffffffffffffffffffffffffffffffff168152602001908152602001600020839080600181540180825580915050600190039060005260206000200160009091909190915055600190509392505050565b6000602052816000526040600020602052806000526040600020600091509150508060000154908060010160009054906101000a900473ffffffffffffffffffffffffffffffffffffffff16908060020154908060030160009054906101000a900460ff169080600401805461130090611dfb565b80601f016020809104026020016040519081016040528092919081815260200182805461132c90611dfb565b80156113795780601f1061134e57610100808354040283529160200191611379565b820191906000526020600020905b81548152906001019060200180831161135c57829003601f168201915b5050505050908060050154905086565b600080600090505b82518110156113d157838382815181106113ae576113ad611a13565b5b6020026020010151036113c457809150506113f6565b8080600101915050611391565b507fffffffffffffffffffffffffffffffffffffffffffffffffffffffffffffffff90505b92915050565b6000604051905090565b600080fd5b600080fd5b6000819050919050565b61142381611410565b811461142e57600080fd5b50565b6000813590506114408161141a565b92915050565b60006020828403121561145c5761145b611406565b5b600061146a84828501611431565b91505092915050565b600073ffffffffffffffffffffffffffffffffffffffff82169050919050565b600061149e82611473565b9050919050565b6114ae81611493565b82525050565b60006020820190506114c960008301846114a5565b92915050565b6114d881611493565b81146114e357600080fd5b50565b6000813590506114f5816114cf565b92915050565b60006020828403121561151157611510611406565b5b600061151f848285016114e6565b91505092915050565b600081519050919050565b600082825260208201905092915050565b6000819050602082019050919050565b61155d81611410565b82525050565b600061156f8383611554565b60208301905092915050565b6000602082019050919050565b600061159382611528565b61159d8185611533565b93506115a883611544565b8060005b838110156115d95781516115c08882611563565b97506115cb8361157b565b9250506001810190506115ac565b5085935050505092915050565b600060208201905081810360008301526116008184611588565b905092915050565b60008060006060848603121561162157611620611406565b5b600061162f868287016114e6565b935050602061164086828701611431565b925050604061165186828701611431565b9150509250925092565b60008115159050919050565b6116708161165b565b82525050565b600060208201905061168b6000830184611667565b92915050565b600080604083850312156116a8576116a7611406565b5b60006116b6858286016114e6565b92505060206116c785828601611431565b9150509250929050565b6116da81611410565b82525050565b600081519050919050565b600082825260208201905092915050565b60005b8381101561171a5780820151818401526020810190506116ff565b60008484015250505050565b6000601f19601f8301169050919050565b6000611742826116e0565b61174c81856116eb565b935061175c8185602086016116fc565b61176581611726565b840191505092915050565b600060c08201905061178560008301896116d1565b61179260208301886114a5565b61179f60408301876116d1565b6117ac6060830186611667565b81810360808301526117be8185611737565b90506117cd60a08301846116d1565b979650505050505050565b7f546f6b656e206e6f74206c697374656400000000000000000000000000000000600082015250565b600061180e6010836116eb565b9150611819826117d8565b602082019050919050565b6000602082019050818103600083015261183d81611801565b9050919050565b600060208201905061185960008301846116d1565b92915050565b60008151905061186e816114cf565b92915050565b60006020828403121561188a57611889611406565b5b60006118988482850161185f565b91505092915050565b7f4e6f742061206c697374656420746f6b656e0000000000000000000000000000600082015250565b60006118d76012836116eb565b91506118e2826118a1565b602082019050919050565b60006020820190508181036000830152611906816118ca565b9050919050565b7f496e76616c69642070726963652076616c7565206265696e672073656e740000600082015250565b6000611943601e836116eb565b915061194e8261190d565b602082019050919050565b6000602082019050818103600083015261197281611936565b9050919050565b600060608201905061198e60008301866114a5565b61199b60208301856114a5565b6119a860408301846116d1565b949350505050565b7f4e487b7100000000000000000000000000000000000000000000000000000000600052601160045260246000fd5b60006119ea82611410565b91506119f583611410565b9250828203905081811115611a0d57611a0c6119b0565b5b92915050565b7f4e487b7100000000000000000000000000000000000000000000000000000000600052603260045260246000fd5b7f4e487b7100000000000000000000000000000000000000000000000000000000600052603160045260246000fd5b6000604082019050611a8660008301856114a5565b611a9360208301846114a5565b9392505050565b611aa38161165b565b8114611aae57600080fd5b50565b600081519050611ac081611a9a565b92915050565b600060208284031215611adc57611adb611406565b5b6000611aea84828501611ab1565b91505092915050565b7f4f6e6c7920746865206f776e657220616e64206f70657261746f722063616e2060008201527f4c69737400000000000000000000000000000000000000000000000000000000602082015250565b6000611b4f6024836116eb565b9150611b5a82611af3565b604082019050919050565b60006020820190508181036000830152611b7e81611b42565b9050919050565b7f416c7265616479206c6973746564000000000000000000000000000000000000600082015250565b6000611bbb600e836116eb565b9150611bc682611b85565b602082019050919050565b60006020820190508181036000830152611bea81611bae565b9050919050565b7f5265717569726564204d696e7420666972737400000000000000000000000000600082015250565b6000611c276013836116eb565b9150611c3282611bf1565b602082019050919050565b60006020820190508181036000830152611c5681611c1a565b9050919050565b600080fd5b600080fd5b7f4e487b7100000000000000000000000000000000000000000000000000000000600052604160045260246000fd5b611c9f82611726565b810181811067ffffffffffffffff82111715611cbe57611cbd611c67565b5b80604052505050565b6000611cd16113fc565b9050611cdd8282611c96565b919050565b600067ffffffffffffffff821115611cfd57611cfc611c67565b5b611d0682611726565b9050602081019050919050565b6000611d26611d2184611ce2565b611cc7565b905082815260208101848484011115611d4257611d41611c62565b5b611d4d8482856116fc565b509392505050565b600082601f830112611d6a57611d69611c5d565b5b8151611d7a848260208601611d13565b91505092915050565b600060208284031215611d9957611d98611406565b5b600082015167ffffffffffffffff811115611db757611db661140b565b5b611dc384828501611d55565b91505092915050565b7f4e487b7100000000000000000000000000000000000000000000000000000000600052602260045260246000fd5b60006002820490506001821680611e1357607f821691505b602082108103611e2657611e25611dcc565b5b50919050565b60008190508160005260206000209050919050565b60006020601f8301049050919050565b600082821b905092915050565b600060088302611e8e7fffffffffffffffffffffffffffffffffffffffffffffffffffffffffffffffff82611e51565b611e988683611e51565b95508019841693508086168417925050509392505050565b6000819050919050565b6000611ed5611ed0611ecb84611410565b611eb0565b611410565b9050919050565b6000819050919050565b611eef83611eba565b611f03611efb82611edc565b848454611e5e565b825550505050565b600090565b611f18611f0b565b611f23818484611ee6565b505050565b5b81811015611f4757611f3c600082611f10565b600181019050611f29565b5050565b601f821115611f8c57611f5d81611e2c565b611f6684611e41565b81016020851015611f75578190505b611f89611f8185611e41565b830182611f28565b50505b505050565b600082821c905092915050565b6000611faf60001984600802611f91565b1980831691505092915050565b6000611fc88383611f9e565b9150826002028217905092915050565b611fe1826116e0565b67ffffffffffffffff811115611ffa57611ff9611c67565b5b6120048254611dfb565b61200f828285611f4b565b600060209050601f8311600181146120425760008415612030578287015190505b61203a8582611fbc565b8655506120a2565b601f19841661205086611e2c565b60005b8281101561207857848901518255600182019150602085019450602081019050612053565b868310156120955784890151612091601f891682611f9e565b8355505b6001600288020188555050505b50505050505056fea26469706673582212204c67478ad7bc228222da3d73a4b6a8a8b85da4b2095d2f51310727224c06b55f64736f6c63430008180033",
    "linkReferences": {},
    "deployedLinkReferences": {}
}